:1000000012C02CC02BC02AC029C028C027C026C0BF
:1000100025C024C023C022C021C020C01FC01EC0D4
:100020001DC01CC01BC011241FBECFE5D4E0DEBF25
:10003000CDBF10E0A0E6B0E0ECECF3E002C005902C
:100040000D92A238B107D9F722E0A2E8B0E001C0D2
:100050001D92AD38B207E1F7C7D0B6C1D1CF0F932B
:100060001F93CF93DF9370918100260F01E010E082
:10007000480F621721F1C62FC695C695C69594E51F
:10008000C99FE0011124962F9770F80101C0EE0F6F
:100090009A95EAF75E2FE095382F341771F0DE015C
:1000A000A30FB11DAB56BF4F9C91713011F4952B2E
:1000B00001C09E239C933F5FF0CF6F5FDACFDF914B
:1000C000CF911F910F910895809192008093940099
:1000D00083E080939300369A3699FECF84B195B130
:1000E00090916000990F8927809360008C718093B4
:1000F000920008959F92AF92BF92CF92DF92EF92BB
:10010000FF920F931F93CF93DF93E82FF0E0EF5907
:10011000FF4F9080D62FD770C62FC695C695C6952F
:10012000411104C0C03110F080E048C0142F88E0B5
:10013000A82EB12C00E890E8E92EF12C29E0C22E7F
:10014000D12C802F892161F18D2F90E0123061F444
:10015000B601681B790B660F660F24E044E08C2F14
:10016000880F880F7CDF1CC0C7010D2E02C095953B
:1001700087950A94E2F7113041F4EC2FF0E0EE5746
:10018000FF4F9081892B80830BC0D83068F6C03137
:1001900058F6EC2FF0E0EE57FF4F9081892321F6BF
:1001A000802F847211F4DF5F02C0D250CF5F0695BA
:1001B00081E0A81AB10809F0C4CF81E0DF91CF91A6
:1001C0001F910F91FF90EF90DF90CF90BF90AF9075
:1001D0009F90089588B7846088BF83EC90EF9DBDA1
:1001E0008CBD85E08EBD089580EC87B986E886B920
:1001F00087B38D6387BBC49A80E58DB9C09880E2D0
:100200008FB9779BFECF8CE08FB9779BFECFC09ADA
:100210005BDF5ADFDFDFD0E005E910E028EFE22EF8
:10022000FF24F394BB24B39439E0C32ED12CF801FE
:10023000C70111920197E9F7B092810020E348E4E9
:1002400060E080E00CDF1092810022E241E467E090
:1002500080E005DFB0928100CCE391E9892E90E047
:10026000992E7724739488E0A82EAA94F4018081B3
:10027000872149F0B6016A197109660F660F24E0FB
:1002800044E08C2FECDE770CA110EFCFF1E08F1A59
:100290009108C450CC3F29F742E0609193008091CF
:1002A000940028DF42E06BE98091920023DFE5E9CA
:1002B000F0E081918FB9779BFECF82E0ED38F807AF
:1002C000C1F7DD2349F08FED92E2A3E0B0E00197A2
:1002D000A109B10909F0FBCF08B602FC02C081995F
:1002E0003AC0C0919300C85F40E06C2F80919400A9
:1002F00001DF882319F0C09393002AC041E0609188
:10030000930080919400F6DE8FE0A82FB0E0AE5706
:10031000BF4F9C919F3F81F4982F992351F0E92F73
:10032000F0E0EE57FF4FEF01219728812083915095
:10033000F4CF10928200EDCF815038F7C5DE40E057
:100340006091930080919400D5DE811101C038D076
:1003500041DFD1E001C0D0E0839913C0C091940087
:100360008C2F8370833011F4CC7F01C0CF5F40E0CD
:10037000609193008C2FBEDE882319F0C093940007
:10038000D1E0809907C0C09193008C2F877011F045
:10039000C1500AC082994BCFC09193008C2F8770B7
:1003A000873009F444CFCF5F40E06C2F80919400F8
:1003B000A1DE882309F43BCFC0939300D1E037CF6F
:0C03C00081E090E0F89400C0F894FFCFBA
:1003CC0003E092E092E4D29C4BF0933CC9D8D8D88D
:1003DC00D878997899E89A5C59CC5ACC5A80808014
:0203EC0080018E
:00000001FF
