:1000000012C02CC02BC02AC029C028C027C026C0BF
:1000100025C024C023C022C021C020C01FC01EC0D4
:100020001DC01CC01BC011241FBECFE5D4E0DEBF25
:10003000CDBF10E0A0E6B0E0EAE7F4E002C0059032
:100040000D92AE37B107D9F722E0AEE7B0E001C0BC
:100050001D92AB38B207E1F734D10DC2D1CF0F9367
:100060001F93CF93DF9370917D00260F01E010E086
:10007000480F621721F1C62FC695C695C69594E51F
:10008000C99FE0011124962F9770F80101C0EE0F6F
:100090009A95EAF75E2FE095382F341771F0DE015C
:1000A000A30FB11DAD56BF4F9C91713011F4952B2C
:1000B00001C09E239C933F5FF0CF6F5FDACFDF914B
:1000C000CF911F910F91089580919000809392009D
:1000D00083E080939100369A3699FECF809160003C
:1000E00024B135B1829582278093600067E0B3D157
:1000F000990F990F9093900008951F93CF93DF93DA
:10010000E82FF0E0EF59FF4F7081862F8695869596
:100110008695803110F080E03DC06770A8E0B0E0C7
:1001200050E890E0C0E8D0E0252F272339F14423A0
:1001300079F0E82FF0E0E058FF4F10819E01062E85
:1001400002C0359527950A94E2F7212B208316C02B
:10015000683008F78031F8F6E82FF0E0E058FF4FFC
:100160002081E22FF0E09E01062E02C035952795F2
:100170000A94E2F72E233F23232B69F69F5F9330E7
:1001800011F06F5F03C062508F5F90E0569511973A
:1001900059F681E0DF91CF911F910895CF93DF93BE
:1001A000C0919100C85F40E06C2F80919200A5DF64
:1001B000882319F0C093910034C041E06091910010
:1001C000809192009ADF20917E0030917F008FE035
:1001D000A82FB0E0A058BF4F9C919F3F91F4982F5B
:1001E000992351F0E92FF0E0E058FF4FEF012197FC
:1001F000488140839150F4CF109280002F5F3F4F91
:10020000EBCF815028F730937F0020937E005CDF96
:1002100040E060919100809192006FDF811101C0F8
:1002200026D1DF91CF91089588B7846088BF80E39D
:100230009CEF9DBD8CBD85E08EBD0895BF92CF9291
:10024000DF92EF92FF920F931F93CF93DF93B62E1F
:10025000E82FF0E0EF59FF4FE08008E010E0D0E831
:10026000F12CC0E089E0C82ED12C8D2F8E21B1F069
:100270008C2F8B0D98E0F99E800D1124982F97708C
:100280009601291B3109622F660F660F86958695A8
:10029000869524E044E0880F880FE1DECF5FC3300D
:1002A00011F4F394C0E0D69501501109F1F6DF91F5
:1002B000CF911F910F91FF90EF90DF90CF90BF9063
:1002C000089580EC87B986E886B987B38D6387BBCC
:1002D000C49A80E58DB9C09880E28FB9779BFECF34
:1002E0008CE08FB9779BFECFC09AEEDEEDDE9CDF0F
:1002F000C0E003E910E028EFE22EFF24F394AA24E3
:10030000A39439E0C32ED12CF801C70111920197B3
:10031000E9F7A0927D0020E348E460E080E09FDE02
:1003200010927D0022E241E467E080E098DEA09236
:100330007D00DCE39FE8892E90E0992E772473946A
:1003400088E0B82EBA94F4018081872149F0B60183
:100350006B197109660F660F24E044E08D2F7FDE74
:10036000770CB110EFCFF1E08F1A9108D450DC3F39
:1003700029F7609191008091920060DF6BE9809194
:1003800090005CDFE3E9F0E081918FB9779BFECFCD
:1003900082E0EB38F807C1F7CC2331F080EE9EE223
:1003A000019711F00000FCCF839B02C0C0E013C096
:1003B000C09192008C2F8370833011F4CC7F01C0E8
:1003C000CF5F40E0609191008C2F97DE882371F31E
:1003D000C0939200C1E0809910C0D09191008D2F00
:1003E000877059F0D15040E06D2F8091920085DEEA
:1003F000882319F0D0939100C1E0829921C08091A7
:100400009200282F26952695D09191009D2F9770C8
:1004100080FF07C0963058F0963091F4222339F0CF
:100420000FC0953020F0953059F4233049F4DF5F48
:1004300040E06D2F62DE882319F0D0939100C1E077
:10044000819903C0ABDEF0DEC1E008B602FE5CCFEE
:10045000A5DEEADE59CF991B79E004C0991F9617F3
:1004600008F0961B881F7A95C9F78095089581E05A
:0A04700090E0F89400C0F894FFCF6C
:10047A0003E092E092E4D29C4BF0933CC9D8D8D8DE
:0E048A00D878997899E89A5C59CC5ACC5A01E6
:00000001FF
