:1000000012C02CC02BC02AC029C028C027C026C0BF
:1000100025C024C023C022C021C020C01FC01EC0D4
:100020001DC01CC01BC011241FBECFE5D4E0DEBF25
:10003000CDBF10E0A0E6B0E0E8E1F6E002C0059038
:100040000D92AE37B107D9F722E0AEE7B0E001C0BC
:100050001D92AC38B207E1F781D1DCC2D1CF369A1C
:100060003699FECF8091600024B135B18295822708
:100070008093600008959C0198B7946098BF3DBD3F
:100080002CBD85E08EBD0895CF9380EC87B986E8BE
:1000900086B911BA92D2E3DFC7E06C2FABD2990FC9
:1000A000990F9093920083E080939100D8DF6C2F9A
:1000B000A1D2990F990F9093900081EC90EFCF917E
:1000C000DACF962F880F880F68E0680F24E044E0AD
:1000D000892F880F880FF5C1982F977069E070E01D
:1000E000691B7109660F660F86958695869524E0D3
:1000F00044E0880F880FE5C1CF92DF92EF92FF9224
:100100000F931F93CF93DF931F92CDB7DEB7982F36
:1001100093708695869524E0829FF0011124E90F63
:10012000F11DEF59FF4FE08008E010E080E8C82E95
:10013000F12CD12C8C2D8E2149F08D2D860F98E03D
:10014000F99E800D11246983C7DF6981D39423E070
:10015000D21202C0F394D12CC6940150110951F768
:100160000F90DF91CF911F910F91FF90EF90DF9053
:10017000CF9008951F93CF93DF93982F9370869518
:10018000869524E0829FF0011124E90FF11DEF59BB
:10019000FF4F7081862F869586958695803110F069
:1001A00080E03DC06770A8E0B0E050E890E0C0E8B3
:1001B000D0E0252F272339F1442379F0E82FF0E010
:1001C000E058FF4F10819E01062E02C035952795FD
:1001D0000A94E2F7212B208316C0683008F780319B
:1001E000F8F6E82FF0E0E058FF4F2081E22FF0E032
:1001F0009E01062E02C0359527950A94E2F72E231C
:100200003F23232B69F69F5F933011F06F5F03C08C
:1002100062508F5F90E05695119759F681E0DF911B
:10022000CF911F910895CF93DF93C0919100C85F44
:1002300040E06C2F809192009DDF882319F0C093DD
:10024000910041C041E0609191008091920092DF65
:1002500020917E0030917F008FE0A82FB0E0A05861
:10026000BF4F9C919F3F91F4982F992351F0E92F14
:10027000F0E0E058FF4FEF01219748814083915013
:10028000F4CF109280002F5F3F4FEBCF815028F7C3
:1002900030937F0020937E008091900080939200A5
:1002A00083E080939100DBDE67E0A4D1990F990F82
:1002B0009093900040E060919100809192005ADF0D
:1002C000811101C0A3D1DF91CF910895EF92FF92E8
:1002D0001F93CF93DF93B6D081E080939300EED04D
:1002E00020E348E460E080E0ECD080E0E7D022E268
:1002F00041E467E080E0E5D01092930081E0DED039
:1003000080E8E82E80E0F82E10E0C0E0D0E0F701B1
:10031000808190E00C2E02C0959587950A94E2F7B3
:1003200080FF03C0612F8C2FCCDE2196C830D10511
:1003300071F71F5F2FEFE21AF20A103131F7609167
:10034000910080919200D8DE6BE980919000D4DE1C
:10035000DF91CF911F91FF90EF9010C195DEC0E02B
:10036000B5DFCC2349F02FEF89EF90E0215080409A
:100370009040E1F700C00000839B02C0C0E013C0C2
:10038000C09192008C2F8370833011F4CC7F01C018
:10039000CF5F40E0609191008C2FECDE882371F3F9
:1003A000C0939200C1E0809910C0D09191008D2F30
:1003B000877059F0D15040E06D2F80919200DADEC5
:1003C000882319F0D0939100C1E0829921C08091D7
:1003D0009200282F26952695D09191009D2F9770F9
:1003E00080FF07C0963058F0963091F4222339F000
:1003F0000FC0953020F0953059F4233049F4DF5F79
:1004000040E06D2FB7DE882319F0D0939100C1E052
:10041000819905C008DF81EC90EF2DDEC1E008B6C0
:1004200002FE9ECF00DF81EC90EF25DE99CFC298CF
:10043000613011F4C09A01C0C0988FB9779BFECF8C
:10044000C29A089588EF91E0E4E9F0E0DF019C01B1
:100450001D9221503040E1F70895962F969596957C
:100460009695E82FF0E084E5989FE00DF11D1124AA
:10047000677080917D00EC56FF4F813049F481E038
:1004800090E001C0880F6A95EAF79081892B14C02B
:10049000823049F481E090E001C0880F6A95EAF764
:1004A0009081892709C081E090E001C0880F6A959A
:1004B000EAF78095908189238083089580937D0059
:1004C00008956F927F928F929F92AF92BF92CF9238
:1004D000DF92EF92FF920F931F93CF93DF938435B8
:1004E000D8F56033C8F5C42FD0E0C80FD11DC5358D
:1004F000D10594F5022F10E0060F111D01331105EF
:100500005CF5E62EF82EC62E5E0181E0A81AB10831
:10051000480181E0881A91086C2C712C60167106D4
:10052000ECF4DF2C8D2D90E08C179D079CF420912E
:10053000930021110AC0DF1441F08A159B0529F0B0
:10054000CE1419F06814790419F46C2D8D2D85DF03
:10055000D394E8CFC394E0CF81E001C080E0DF9185
:10056000CF911F910F91FF90EF90DF90CF90BF90B0
:10057000AF909F908F907F906F9008951F93CF932F
:10058000DF9360E080E853DF60E080E450DFC4E99F
:10059000D0E01C2F115061E0899149DF1C13FBCF83
:1005A000C3E9D1E01C2F175061E0899140DF1C1393
:1005B000FBCFDF91CF911F910895C49A87B38D63CC
:1005C00087BBC498C49A80E58DB9C29A60E081E285
:1005D0002EDF60E088EC2BDF60E086E028DF60E063
:1005E00083E125DF60E080E222DF60E08CE01FDF56
:1005F00029DFC4CF991B79E004C0991F961708F032
:10060000961B881F7A95C9F78095089581E090E040
:08061000F89400C0F894FFCF3C
:1006180003E092E092E4D29C4BF0933CC9D8D8D83E
:0E062800D878997899E89A5C59CC5ACC5A0146
:00000001FF
