:1000000012C02CC02BC02AC029C028C027C026C0BF
:1000100025C024C023C022C021C020C01FC01EC0D4
:100020001DC01CC01BC011241FBECFE5D4E0DEBF25
:10003000CDBF10E0A0E6B0E0E4EDF3E002C0059033
:100040000D92A038B107D9F722E0A0E8B0E001C0D6
:100050001D92AD38B207E1F7D4D0BAC1D1CF0F931A
:100060001F93CF93DF93762F7170260F01E010E07E
:10007000480F621721F1C62FC695C695C69594E51F
:10008000C99FE0011124962F9770F80101C0EE0F6F
:100090009A95EAF75E2FE095382F341771F0DE015C
:1000A000A30FB11DAB56BF4F9C91711102C0952B90
:1000B00001C09E239C933F5FF0CF6F5FDACFDF914B
:1000C000CF911F910F910895809192008093940099
:1000D00083E080939300369A3699FECF84B195B130
:1000E00090919100990F8927809391008C71809352
:1000F00092000895CF93DF93D62FDD0FDD0F29E017
:1001000030E0281B3109C22FCC0FCC0F24E044E093
:100110006C2F8D2FA4DF61E06C0F22E042E081E0C4
:100120008D0FDF91CF919BCFBF92CF92DF92EF9255
:10013000FF920F931F93CF93DF93E82FF0E0E05AE5
:10014000FF4FB080062F0770C62FC695C695C6957F
:10015000411104C0C03110F080E03AC0D42F88E0D3
:10016000C82ED12C10E890E8E92EF12C812F8B219C
:1001700011F1D23021F46C2F802FBCDF1CC097010D
:10018000002E02C0359527950A94E2F7D13041F44C
:10019000EC2FF0E0EF57FF4F8081282B20830BC01E
:1001A0000830D0F6C031C0F6EC2FF0E0EF57FF4F2B
:1001B0008081282389F6812F847211F40F5F02C099
:1001C0000250CF5F169581E0C81AD10879F681E018
:1001D000DF91CF911F910F91FF90EF90DF90CF9023
:1001E000BF90089584E088BF8091800020E1829FC5
:1001F000C0011124815F9F409DBD8CBD85E08EBDF7
:10020000089580EC87B986E886B987B38D6387BB8C
:10021000C49A80E58DB9C09880E28FB9779BFECFF4
:100220008CE08FB9779BFECFC09A4EDF4DDFDADFCF
:1002300005E910E028EFE22EFF24F39430E4932E3A
:10024000E801F70119923197E9F720E348E460E00B
:1002500080E005DF22E241E467E080E000DF90E932
:10026000A92E90E0B92EC0E1C150CC24C39488E0FF
:10027000D82EDA94F50180818C2119F06C2F8D2D08
:1002800039DFCC0CD110F5CFF1E0AF1AB108C111B4
:10029000EBCF42E0609193008091940045DF42E013
:1002A0006BE98091920040DF809180008695869571
:1002B000492D481B21E063E082E0D1DEE5E9F0E072
:1002C00081918FB9779BFECF82E0ED38F807C1F7B7
:1002D0008FE89FE5A2E0B0E00197A109B10909F01C
:1002E000FBCF08B602FC02C081993FC0C0919300C9
:1002F000C85F40E06C2F8091940016DF882319F0CE
:10030000C093930031C041E06091930080919400CC
:100310000BDF209180008FE0A82FB0E0AF57BF4FD8
:100320009C919F3F99F4982F992361F0E92FF0E079
:10033000EF57FF4FAF0141505109EA013881308337
:100340009150F2CF109281002F5FEACF815020F7B9
:1003500020938000B9DE40E060919300809194008A
:10036000E3DE811101C030D03DDF839910C0C09120
:1003700094008C2F837011F4C36001C0C15040E021
:10038000609193008C2FD0DE8111C09394008099EE
:1003900007C0C09193008C2F877011F0C15009C025
:1003A00082994ECFC0919300CF5F8C2F877009F454
:1003B00047CF40E06C2F80919400B6DE882309F48B
:1003C0003FCFC09393003CCF81E090E0F89400C011
:0403D000F894FFCFCF
:1003D400E092E092E4D29C4BF0933CC9D8D8D8D8B0
:1003E40078997899E89A5C59CC5ACC5A8080808064
:00000001FF
