:1000000012C02CC02BC02AC029C028C027C026C0BF
:1000100025C024C023C022C021C020C01FC01EC0D4
:100020001DC01CC01BC011241FBECFE5D4E0DEBF25
:10003000CDBF10E0A0E6B0E0EEEDF3E002C0059029
:100040000D92A038B107D9F722E0A0E8B0E001C0D6
:100050001D92AD38B207E1F728D1BFC1D1CF0F93C0
:100060001F93CF93DF93762F7170260F01E010E07E
:10007000480F621721F1C62FC695C695C69594E51F
:10008000C99FE0011124962F9770F80101C0EE0F6F
:100090009A95EAF75E2FE095382F341771F0DE015C
:1000A000A30FB11DAB56BF4F9C91711102C0952B90
:1000B00001C09E239C933F5FF0CF6F5FDACFDF914B
:1000C000CF911F910F910895809192008093940099
:1000D00083E080939300369A3699FECF84B195B130
:1000E00090919100990F8927809391008C71809352
:1000F00092000895CF93DF93D62FDD0FDD0F29E017
:1001000030E0281B3109C22FCC0FCC0F24E044E093
:100110006C2F8D2FA4DF61E06C0F22E042E081E0C4
:100120008D0FDF91CF919BCFBF92CF92DF92EF9255
:10013000FF920F931F93CF93DF93E82FF0E0E05AE5
:10014000FF4FB080062F0770C62FC695C695C6957F
:10015000411104C0C03110F080E03AC0D42F88E0D3
:10016000C82ED12C10E890E8E92EF12C812F8B219C
:1001700011F1D23021F46C2F802FBCDF1CC097010D
:10018000002E02C0359527950A94E2F7D13041F44C
:10019000EC2FF0E0EF57FF4F8081282B20830BC01E
:1001A0000830D0F6C031C0F6EC2FF0E0EF57FF4F2B
:1001B0008081282389F6812F847211F40F5F02C099
:1001C0000250CF5F169581E0C81AD10879F681E018
:1001D000DF91CF911F910F91FF90EF90DF90CF9023
:1001E000BF900895FF920F931F93CF93DF9388EFF3
:1001F00091E0E5E9F0E0DF019C011D9221503040E3
:10020000E1F720E348E460E080E029DF22E241E416
:1002100067E080E024DFC0E100E910E0C150D8E0F1
:10022000FF24F394D150D8018C918F2119F06C2FB9
:100230008D2F60DFFF0CD111F5CF01501109C111D5
:10024000EDCF42E060919300809194006DDF42E039
:100250006BE98091920068DF809180008695869599
:1002600040E4481B21E063E082E0F9DEE5E9F0E0EC
:1002700081918FB9779BFECFB2E0ED38FB07C1F7D4
:10028000DF91CF911F910F91FF90089584E088BF77
:10029000809180002AE0829FC00111248D5F9D40E3
:1002A0009DBD8CBD85E08EBD089580EC87B986E844
:1002B00086B987B38D6387BBC49A80E58DB9C09832
:1002C00080E28FB9779BFECF8CE08FB9779BFECF12
:1002D000C09AFADEF9DEF8DED9DF08B602FC02C009
:1002E000819B3DC0C0919300C85F40E06C2F80911E
:1002F00094001ADF882319F0C09393002FC041E0C7
:1003000060919300809194000FDF209180008FE036
:10031000A82FB0E0AF57BF4F9C919F3F89F4982F13
:10032000992351F0E92FF0E0EF57FF4FEF012197AC
:10033000388130839150F4CF109281002F5FECCF41
:10034000815030F720938000BFDE40E06091930041
:1003500080919400E9DE811101C0FFCF97DF839B7C
:1003600010C0C09194008C2F837011F4C36001C041
:10037000C15040E0609193008C2FD6DE8111C09374
:100380009400809B07C0C09193008C2F877011F060
:10039000C15008C0829B0EC0C0919300CF5F8C2FCC
:1003A000877041F040E06C2F80919400BDDE811198
:1003B000C093930080B3882371F014DF8FE996E82F
:1003C000A2E0B0E00197A109B10909F486CF20B3FA
:0E03D0002111F8CF82CF06DF80CFF894FFCF47
:1003DE00E092E092E4D29C4BF0933CC9D8D8D8D8A6
:1003EE0078997899E89A5C59CC5ACC5A808080805A
:00000001FF
