:1000000012C02CC02BC02AC029C028C027C026C0BF
:1000100025C024C023C022C021C020C01FC01EC0D4
:100020001DC01CC01BC011241FBECFE5D4E0DEBF25
:10003000CDBF10E0A0E6B0E0E8EEF3E002C005902E
:100040000D92A038B107D9F722E0A0E8B0E001C0D6
:100050001D92AD38B207E1F7D5D0C4C1D1CF0F930F
:100060001F93CF93DF93762F7170260F01E010E07E
:10007000480F621721F1C62FC695C695C69594E51F
:10008000C99FE0011124962F9770F80101C0EE0F6F
:100090009A95EAF75E2FE095382F341771F0DE015C
:1000A000A30FB11DAB56BF4F9C91711102C0952B90
:1000B00001C09E239C933F5FF0CF6F5FDACFDF914B
:1000C000CF911F910F910895809192008093940099
:1000D00083E080939300369A3699FECF84B195B130
:1000E00090919100990F8927809391008C71809352
:1000F00092000895CF93DF93D62FDD0FDD0F29E017
:1001000030E0281B3109C22FCC0FCC0F24E044E093
:100110006C2F8D2FA4DF61E06C0F22E042E081E0C4
:100120008D0FDF91CF919BCFBF92CF92DF92EF9255
:10013000FF920F931F93CF93DF93E82FF0E0E05AE5
:10014000FF4FB080062F0770C62FC695C695C6957F
:10015000411104C0C03110F080E03AC0D42F88E0D3
:10016000C82ED12C10E890E8E92EF12C812F8B219C
:1001700011F1D23021F46C2F802FBCDF1CC097010D
:10018000002E02C0359527950A94E2F7D13041F44C
:10019000EC2FF0E0EF57FF4F8081282B20830BC01E
:1001A0000830D0F6C031C0F6EC2FF0E0EF57FF4F2B
:1001B0008081282389F6812F847211F40F5F02C099
:1001C0000250CF5F169581E0C81AD10879F681E018
:1001D000DF91CF911F910F91FF90EF90DF90CF9023
:1001E000BF90089588B7846088BF8091800028E020
:1001F000829FC0011124815A9F409DBD8CBD85E026
:100200008EBD089580EC87B986E886B987B38D6383
:1002100087BBC49A80E58DB9C09880E28FB9779B7F
:10022000FECF8CE08FB9779BFECFC09A4DDF4CDFBD
:10023000D9DFD0E005E910E028EFE22EFF24F394A7
:1002400030E4D32EF801C70111920197E9F720E3BA
:1002500048E460E080E003DF22E241E467E080E020
:10026000FEDE90E9A92E90E0B92EC0E1C15099249C
:10027000939488E0C82ECA94F5018081892119F0F1
:100280006C2F8C2D37DF990CC110F5CFF1E0AF1A30
:10029000B108C111EBCF42E06091930080919400CE
:1002A00043DF42E06BE9809192003EDF8091800065
:1002B000869586954D2D481B21E063E082E0CFDED8
:1002C000E5E9F0E081918FB9779BFECF82E0ED38D0
:1002D000F807C1F7DD2349F08FED92E2A3E0B0E02B
:1002E0000197A109B10909F0FBCF08B602FC02C0D1
:1002F00081993FC0C0919300C85F40E06C2F80910E
:10030000940012DF882319F0C09393002FC041E0BE
:10031000609193008091940007DF209180008FE02E
:10032000A82FB0E0AF57BF4F9C919F3F89F4982F03
:10033000992351F0E92FF0E0EF57FF4FEF0121979C
:10034000388130839150F4CF109281002F5FECCF31
:10035000815030F720938000B7DE40E06091930039
:1003600080919400E1DE811101C038D03BDFD1E003
:1003700001C0D0E0839913C0C09194008C2F83708A
:10038000833011F4CC7F01C0CF5F40E060919300D7
:100390008C2FCADE882319F0C0939400D1E0809995
:1003A00007C0C09193008C2F877011F0C1500AC014
:1003B000829948CFC09193008C2F8770873009F4C1
:1003C00041CFCF5F40E06C2F80919400ADDE882359
:1003D00009F438CFC0939300D1E034CF81E090E0AE
:0803E000F89400C0F894FFCF6F
:1003E800E092E092E4D29C4BF0933CC9D8D8D8D89C
:1003F80078997899E89A5C59CC5ACC5A8080808050
:00000001FF
