:1000000012C02CC02BC02AC029C028C027C026C0BF
:1000100025C024C023C022C021C020C01FC01EC0D4
:100020001DC01CC01BC011241FBECFE5D4E0DEBF25
:10003000CDBF10E0A0E6B0E0E0ECF5E002C0059036
:100040000D92AE37B107D9F722E0AEE7B0E001C0BC
:100050001D92AB38B207E1F78FD1B0C2D1CF369A3B
:100060003699FECF8091600024B135B18295822708
:100070008093600008959C0198B7946098BF3DBD3F
:100080002CBD85E08EBD0895CF9380EC87B986E8BE
:1000900086B9E6D1E4DFC7E06C2F80D2990F990FC3
:1000A0009093920083E080939100D9DF6C2F76D2F9
:1000B000990F990F9093900081EC90EFCF91DBCF47
:1000C000CF93DF93D62FDD0FDD0F29E030E0281B23
:1000D0003109C22FCC0FCC0F24E044E06C2F8D2FC0
:1000E0000AD280E005D261E06C0F22E042E081E0BC
:1000F0008D0F01D281E0DF91CF91FAC1682F669513
:10010000669566958770DCCFCF92DF92EF92FF9273
:100110000F931F93CF93DF931F92CDB7DEB7982F26
:1001200093708695869524E0829FF0011124E90F53
:10013000F11DEF59FF4FE08008E010E080E8C82E85
:10014000F12CD12C8C2D8E2149F08D2D860F98E02D
:10015000F99E800D11246983D1DF6981D39423E056
:10016000D21202C0F394D12CC6940150110951F758
:100170000F90DF91CF911F910F91FF90EF90DF9043
:10018000CF9008951F93CF93DF93982F9370869508
:10019000869524E0829FF0011124E90FF11DEF59AB
:1001A000FF4F7081862F869586958695803110F059
:1001B00080E03DC06770A8E0B0E050E890E0C0E8A3
:1001C000D0E0252F272339F1442379F0E82FF0E000
:1001D000E058FF4F10819E01062E02C035952795ED
:1001E0000A94E2F7212B208316C0683008F780318B
:1001F000F8F6E82FF0E0E058FF4F2081E22FF0E022
:100200009E01062E02C0359527950A94E2F72E230B
:100210003F23232B69F69F5F933011F06F5F03C07C
:1002200062508F5F90E05695119759F681E0DF910B
:10023000CF911F910895CF93DF93C0919100C85F34
:1002400040E06C2F809192009DDF882319F0C093CD
:10025000910041C041E0609191008091920092DF55
:1002600020917E0030917F008FE0A82FB0E0A05851
:10027000BF4F9C919F3F91F4982F992351F0E92F04
:10028000F0E0E058FF4FEF01219748814083915003
:10029000F4CF109280002F5F3F4FEBCF815028F7B3
:1002A00030937F0020937E00809190008093920095
:1002B00083E080939100D3DE67E070D1990F990FAE
:1002C0009093900040E060919100809192005ADFFD
:1002D000811101C06FD1DF91CF910895CF92DF924C
:1002E000EF92FF921F93CF93DF93C6D081E000D1AE
:1002F00020E348E460E080E0FED080E0F9D022E234
:1003000041E467E080E0F7D081E0F2D080E8E82EB9
:1003100080E0F82E10E090E8C92ED12CC0E0D0E0AB
:10032000F701808190E096010C2E02C0359527954B
:100330000A94E2F782239323892B19F0612F8C2FE3
:10034000BFDE2196C830D10559F71F5F4FEFE41A81
:10035000F40A103119F76091910080919200D4DE77
:100360006BE980919000D0DEDF91CF911F91FF90DB
:10037000EF90DF90CF90F3C087DEC0E0AFDFCC23FB
:1003800049F02FEF89EF90E0215080409040E1F755
:1003900000C00000839B02C0C0E013C0C091920067
:1003A0008C2F8370833011F4CC7F01C0CF5F40E08D
:1003B000609191008C2FE6DE882371F3C093920048
:1003C000C1E0809910C0D09191008D2F877059F0B5
:1003D000D15040E06D2F80919200D4DE882319F037
:1003E000D0939100C1E0829921C080919200282F82
:1003F00026952695D09191009D2F977080FF07C07C
:10040000963058F0963091F4222339F00FC0953091
:1004100020F0953059F4233049F4DF5F40E06D2F30
:10042000B1DE882319F0D0939100C1E0819905C015
:1004300002DF81EC90EF1FDEC1E008B602FE9ECF26
:10044000FADE81EC90EF17DE99CFC298613011F49B
:10045000C09A01C0C0988FB9779BFECFC29A089509
:1004600087B38D6387BBC49A80E58DB960E080E275
:10047000ECDF60E08CE0E9CF88EF91E0E3E9F0E0C9
:10048000DF019C011D9221503040E1F70895962F25
:10049000969596959695E82FF0E084E5989FE00D67
:1004A000F11D1124677080917D00ED56FF4F813062
:1004B00049F481E090E001C0880F6A95EAF79081E5
:1004C000892B14C0823049F481E090E001C0880F8C
:1004D0006A95EAF79081892709C081E090E001C020
:1004E000880F6A95EAF78095908189238083089523
:1004F00080937D000895FF920F931F93CF93DF9316
:10050000F82EC62F83E58F1508F16033F8F4842F99
:1005100090E08F0D911D85359105C4F4822F90E0F8
:10052000860F911DC19794F44150D42FDF0D2150B7
:10053000122F160F1C1760F00F2DD01728F06C2FFC
:10054000802FA5DF0F5FF9CFCF5FF4CF81E001C02F
:1005500080E0DF91CF911F910F91FF9008951F933D
:10056000CF93DF9360E080E870DF60E080E46DDFD0
:10057000C3E9D0E01C2F115061E0899166DF1C13A4
:10058000FBCFC2E9D1E01C2F175061E089915DDFFC
:100590001C13FBCFDF91CF911F910895991B79E038
:1005A00004C0991F961708F0961B881F7A95C9F703
:1005B0008095089581E090E0F89400C0F894FFCF12
:1005C00003E092E092E4D29C4BF0933CC9D8D8D897
:0E05D000D878997899E89A5C59CC5ACC5A019F
:00000001FF
