:1000000012C02CC02BC02AC029C028C027C026C0BF
:1000100025C024C023C022C021C020C01FC01EC0D4
:100020001DC01CC01BC011241FBECFE5D4E0DEBF25
:10003000CDBF10E0A0E6B0E0E2E2F4E002C005903F
:100040000D92AE37B107D9F722E0AEE7B0E001C0BC
:100050001D92A938B207E1F7E8D0E1C1D1CF0F93E3
:100060001F93CF93DF9370917D00260F01E010E086
:10007000480F621721F1C62FC695C695C69594E51F
:10008000C99FE0011124962F9770F80101C0EE0F6F
:100090009A95EAF75E2FE095382F341771F0DE015C
:1000A000A30FB11DAF56BF4F9C91713011F4952B2A
:1000B00001C09E239C933F5FF0CF6F5FDACFDF914B
:1000C000CF911F910F91089580918E0080939000A1
:1000D00083E080938F00369A3699FECF809160003E
:1000E00024B135B1829582278093600067E087D183
:1000F000990F990F90938E000895CF92DF92EF920F
:10010000FF920F931F93CF93DF93E82FF0E0EF5907
:10011000FF4F0081D62FD770C62FC695C695C695BE
:1001200088E0E82EF12C10E899E0C92ED12C812F1F
:10013000802359F0B6016D1B7109660F660F24E02C
:1001400044E08C2F880F880F8ADF812F847211F48E
:10015000DF5F02C0D250CF5F169581E0E81AF10848
:1001600031F7DF91CF911F910F91FF90EF90DF90CA
:10017000CF9008951F93CF93DF93E82FF0E0EF59CE
:10018000FF4F7081862F869586958695803110F079
:1001900080E03DC06770A8E0B0E050E890E0C0E8C3
:1001A000D0E0252F272339F1442379F0E82FF0E020
:1001B000E258FF4F10819E01062E02C0359527950B
:1001C0000A94E2F7212B208316C0683008F78031AB
:1001D000F8F6E82FF0E0E258FF4F2081E22FF0E040
:1001E0009E01062E02C0359527950A94E2F72E232C
:1001F0003F23232B69F69F5F933011F06F5F03C09D
:1002000062508F5F90E05695119759F681E0DF912B
:10021000CF911F91089588B7846088BF83EC90EFD9
:100220009DBD8CBD85E08EBD089580EC87B986E8C4
:1002300086B987B38D6387BBC49A80E58DB9C098B2
:1002400080E28FB9779BFECF8CE08FB9779BFECF92
:10025000C09A3ADF39DFDFDFD0E001E910E028EFB4
:10026000E22EFF24F394BB24B39439E0C32ED12CA7
:10027000F801C70111920197E9F7B0927D0020E3E0
:1002800048E460E080E0EBDE10927D0022E241E491
:1002900067E080E0E4DEB0927D00CCE39DE8892E4B
:1002A00090E0992E7724739488E0A82EAA94F40104
:1002B0008081872149F0B6016A197109660F660FBE
:1002C00024E044E08C2FCBDE770CA110EFCFF1E0DF
:1002D0008F1A9108C450CC3F29F760918F0080910C
:1002E00090000BDF6BE980918E0007DFE1E9F0E021
:1002F00081918FB9779BFECF82E0E938F807C1F78B
:10030000DD2349F08FED92E2A3E0B0E00197A1096F
:10031000B10909F0FBCF08B602FC02C081993AC0CE
:10032000C0918F00C85F40E06C2F8091900022DF69
:10033000882319F0C0938F002AC041E060918F009C
:100340008091900017DF8FE0A82FB0E0A258BF4F38
:100350009C919F3F81F4982F992351F0E92FF0E071
:10036000E258FF4FEF012197288120839150F4CF6D
:1003700010927E00EDCF815038F7A6DE40E060910C
:100380008F0080919000F6DE811101C044D043DFE0
:10039000D1E001C0D0E0839913C0C09190008C2FB0
:1003A0008370833011F4CC7F01C0CF5F40E0609157
:1003B0008F008C2FDFDE882319F0C0939000D1E0EE
:1003C000809907C0C0918F008C2F877011F0C150A9
:1003D0000AC082994DCFC0918F008C2F87708730D3
:1003E00009F446CFCF5F40E06C2F80919000C2DED1
:1003F000882309F43DCFC0938F00D1E039CF991BFA
:1004000079E004C0991F961708F0961B881F7A950B
:10041000C9F78095089581E090E0F89400C0F894C1
:02042000FFCF0C
:1004220003E092E092E4D29C4BF0933CC9D8D8D836
:0E043200D878997899E89A5C59CC5ACC5A013E
:00000001FF
