:1000000012C02CC02BC02AC029C028C027C026C0BF
:1000100025C024C023C022C021C020C01FC01EC0D4
:100020001DC01CC01BC011241FBECFE5D4E0DEBF25
:10003000CDBF10E0A0E6B0E0EAEBF3E002C005902F
:100040000D92A038B107D9F722E0A0E8B0E001C0D6
:100050001D92AC38B207E1F7CFD0ADC1D1CF0F932D
:100060001F93CF93DF93762F7170260F01E010E07E
:10007000480F621721F1C62FC695C695C69594E51F
:10008000C99FE0011124962F9770F80101C0EE0F6F
:100090009A95EAF75E2FE095382F341771F0DE015C
:1000A000A30FB11DAC56BF4F9C91711102C0952B8F
:1000B00001C09E239C933F5FF0CF6F5FDACFDF914B
:1000C000CF911F910F91089580919100809393009B
:1000D00083E080939200369A3699FECF84B195B131
:1000E00090919000990F8927809390008C71809354
:1000F00091000895CF93DF93D62FDD0FDD0F29E018
:1001000030E0281B3109C22FCC0FCC0F24E044E093
:100110006C2F8D2FA4DF61E06C0F22E042E081E0C4
:100120008D0FDF91CF919BCFBF92CF92DF92EF9255
:10013000FF920F931F93CF93DF93E82FF0E0E05AE5
:10014000FF4FB080062F0770C62FC695C695C6957F
:10015000411104C0C03110F080E03AC0D42F88E0D3
:10016000C82ED12C10E890E8E92EF12C812F8B219C
:1001700011F1D23021F46C2F802FBCDF1CC097010D
:10018000002E02C0359527950A94E2F7D13041F44C
:10019000EC2FF0E0E058FF4F8081282B20830BC02C
:1001A0000830D0F6C031C0F6EC2FF0E0E058FF4F39
:1001B0008081282389F6812F847211F40F5F02C099
:1001C0000250CF5F169581E0C81AD10879F681E018
:1001D000DF91CF911F910F91FF90EF90DF90CF9023
:1001E000BF90089588B7846088BF83EC90EF9DBD71
:1001F0008CBD85E08EBD089580EC87B986E886B910
:1002000087B38D6387BBC49A80E58DB9C09880E2BF
:100210008FB9779BFECF8CE08FB9779BFECFC09ACA
:1002200053DF52DFDFDFD0E004E910E028EFE22EF9
:10023000FF24F394F801C70111920197E9F720E335
:1002400048E460E080E00BDF22E241E467E080E028
:1002500006DF9FE8A92E90E0B92EC0E1C150CC2462
:10026000C39488E0D82EDA94F50180818C2119F0AE
:100270006C2F8D2D3FDFCC0CD110F5CFF1E0AF1AF4
:10028000B108C111EBCF42E06091920080919300E0
:100290004BDF42E06BE98091910046DFE4E9F0E05A
:1002A00081918FB9779BFECF82E0EC38F807C1F7D8
:1002B000DD2349F08FED92E2A3E0B0E00197A109C0
:1002C000B10909F0FBCF08B602FC02C081993AC01F
:1002D000C0919200C85F40E06C2F8091930024DFB2
:1002E000882319F0C09392002AC041E060919200E7
:1002F0008091930019DF8FE0A82FB0E0A058BF4F86
:100300009C919F3F81F4982F992351F0E92FF0E0C1
:10031000E058FF4FEF012197288120839150F4CFBF
:1003200010928000EDCF815038F7CEDE40E0609132
:10033000920080919300F8DE811101C038D052DF25
:10034000D1E001C0D0E0839913C0C09193008C2FFD
:100350008370833011F4CC7F01C0CF5F40E06091A7
:1003600092008C2FE1DE882319F0C0939300D1E036
:10037000809907C0C09192008C2F877011F0C150F6
:100380000AC0829957CFC09192008C2F8770873016
:1003900009F450CFCF5F40E06C2F80919300C4DE12
:1003A000882309F447CFC0939200D1E043CF81E086
:0A03B00090E0F89400C0F894FFCF2D
:1003BA00E092E092E4D29C4BF0933CC9D8D8D8D8CA
:1003CA0078997899E89A5C59CC5ACC5A808080807E
:00000001FF
