:1000000012C02CC02BC02AC029C028C027C026C0BF
:1000100025C024C023C022C021C020C01FC01EC0D4
:100020001DC01CC01BC011241FBECFE5D4E0DEBF25
:10003000CDBF10E0A0E6B0E0EAEBF3E002C005902F
:100040000D92A238B107D9F722E0A2E8B0E001C0D2
:100050001D92AD38B207E1F7CFD0ADC1D1CF0F932C
:100060001F93CF93DF93762F7170260F01E010E07E
:10007000480F621721F1C62FC695C695C69594E51F
:10008000C99FE0011124962F9770F80101C0EE0F6F
:100090009A95EAF75E2FE095382F341771F0DE015C
:1000A000A30FB11DAB56BF4F9C91711102C0952B90
:1000B00001C09E239C933F5FF0CF6F5FDACFDF914B
:1000C000CF911F910F910895809192008093940099
:1000D00083E080939300369A3699FECF84B195B130
:1000E00090916000990F8927809360008C718093B4
:1000F00092000895CF93DF93D62FDD0FDD0F29E017
:1001000030E0281B3109C22FCC0FCC0F24E044E093
:100110006C2F8D2FA4DF61E06C0F22E042E081E0C4
:100120008D0FDF91CF919BCFBF92CF92DF92EF9255
:10013000FF920F931F93CF93DF93E82FF0E0EF59D7
:10014000FF4FB080062F0770C62FC695C695C6957F
:10015000411104C0C03110F080E03AC0D42F88E0D3
:10016000C82ED12C10E890E8E92EF12C812F8B219C
:1001700011F1D23021F46C2F802FBCDF1CC097010D
:10018000002E02C0359527950A94E2F7D13041F44C
:10019000EC2FF0E0EE57FF4F8081282B20830BC01F
:1001A0000830D0F6C031C0F6EC2FF0E0EE57FF4F2C
:1001B0008081282389F6812F847211F40F5F02C099
:1001C0000250CF5F169581E0C81AD10879F681E018
:1001D000DF91CF911F910F91FF90EF90DF90CF9023
:1001E000BF90089588B7846088BF83EC90EF9DBD71
:1001F0008CBD85E08EBD089580EC87B986E886B910
:1002000087B38D6387BBC49A80E58DB9C09880E2BF
:100210008FB9779BFECF8CE08FB9779BFECFC09ACA
:1002200053DF52DFDFDFD0E005E910E028EFE22EF8
:10023000FF24F394F801C70111920197E9F720E335
:1002400048E460E080E00BDF22E241E467E080E028
:1002500006DF91E9A92E90E0B92EC0E1C150CC246F
:10026000C39488E0D82EDA94F50180818C2119F0AE
:100270006C2F8D2D3FDFCC0CD110F5CFF1E0AF1AF4
:10028000B108C111EBCF42E06091930080919400DE
:100290004BDF42E06BE98091920046DFE5E9F0E058
:1002A00081918FB9779BFECF82E0ED38F807C1F7D7
:1002B000DD2349F08FED92E2A3E0B0E00197A109C0
:1002C000B10909F0FBCF08B602FC02C081993AC01F
:1002D000C0919300C85F40E06C2F8091940024DFB0
:1002E000882319F0C09393002AC041E060919300E5
:1002F0008091940019DF8FE0A82FB0E0AE57BF4F78
:100300009C919F3F81F4982F992351F0E92FF0E0C1
:10031000EE57FF4FEF012197288120839150F4CFB2
:1003200010928200EDCF815038F7CEDE40E0609130
:10033000930080919400F8DE811101C038D052DF23
:10034000D1E001C0D0E0839913C0C09194008C2FFC
:100350008370833011F4CC7F01C0CF5F40E06091A7
:1003600093008C2FE1DE882319F0C0939400D1E034
:10037000809907C0C09193008C2F877011F0C150F5
:100380000AC0829957CFC09193008C2F8770873015
:1003900009F450CFCF5F40E06C2F80919400C4DE11
:1003A000882309F447CFC0939300D1E043CF81E085
:0A03B00090E0F89400C0F894FFCF2D
:1003BA0003E092E092E4D29C4BF0933CC9D8D8D89F
:1003CA00D878997899E89A5C59CC5ACC5A80808026
:0203DA008000A1
:00000001FF
