:1000000012C02CC02BC02AC029C028C027C026C0BF
:1000100025C024C023C022C021C020C01FC01EC0D4
:100020001DC01CC01BC011241FBECFE5D4E0DEBF25
:10003000CDBF10E0A0E6B0E0EEEFF3E002C0059027
:100040000D92AE37B107D9F722E0AEE7B0E001C0BC
:100050001D92A938B207E1F7D4D0CFC1D1CF0F9309
:100060001F93CF93DF9370917D00260F01E010E086
:10007000480F621721F1C62FC695C695C69594E51F
:10008000C99FE0011124962F9770F80101C0EE0F6F
:100090009A95EAF75E2FE095382F341771F0DE015C
:1000A000A30FB11DAF56BF4F9C91713011F4952B2A
:1000B00001C09E239C933F5FF0CF6F5FDACFDF914B
:1000C000CF911F910F91089580918E0080939000A1
:1000D00083E080938F00369A3699FECF809160003E
:1000E00024B135B1829582278093600067E075D195
:1000F000990F990F90938E0008959F92AF92BF929F
:10010000CF92DF92EF92FF920F931F93CF93DF93E3
:10011000E82FF0E0EF59FF4F9080D62FD770C62F11
:10012000C695C695C695411104C0C03110F080E057
:1001300052C0142F88E0E82EF12C00E890E8A92E98
:10014000B12C29E0C22ED12C802F8921B1F112309F
:1001500061F4B6016D1B7109660F660F24E044E07F
:100160008C2F880F880F7BDF28C0113079F4EC2F9B
:10017000F0E0E258FF4F2081C5010D2E02C0959599
:1001800087950A94E2F7822B808317C0D83078F6DF
:10019000C03168F6EC2FF0E0E258FF4F8081282F45
:1001A00030E0C5010D2E02C0959587950A94E2F7BF
:1001B00082239323892B09F0BACF802F847211F404
:1001C000DF5F02C0D250CF5F069581E0E81AF108E8
:1001D00009F0BACF81E0DF91CF911F910F91FF908D
:1001E000EF90DF90CF90BF90AF909F90089588B729
:1001F000846088BF83EC90EF9DBD8CBD85E08EBD93
:10020000089580EC87B986E886B987B38D6387BB8C
:10021000C49A80E58DB9C09880E28FB9779BFECFF4
:100220008CE08FB9779BFECFC09A4EDF4DDFDFDFCA
:10023000D0E001E910E028EFE22EFF24F394BB2484
:10024000B39439E0C32ED12CF801C7011192019764
:10025000E9F7B0927D0020E348E460E080E0FFDE53
:1002600010927D0022E241E467E080E0F8DEB09287
:100270007D00CCE39DE8892E90E0992E772473943D
:1002800088E0A82EAA94F4018081872149F0B60164
:100290006A197109660F660F24E044E08C2FDFDED7
:1002A000770CA110EFCFF1E08F1A9108C450CC3F2A
:1002B00029F742E060918F00809190001EDF42E0BC
:1002C0006BE980918E0019DFE1E9F0E081918FB94F
:1002D000779BFECF82E0E938F807C1F7DD2349F0CC
:1002E0008FED92E2A3E0B0E00197A109B10909F016
:1002F000FBCF08B602FC02C081993AC0C0918F00C2
:10030000C85F40E06C2F80919000F7DE882319F0E1
:10031000C0938F002AC041E060918F0080919000CF
:10032000ECDE8FE0A82FB0E0A258BF4F9C919F3F1A
:1003300081F4982F992351F0E92FF0E0E258FF4F14
:10034000EF012197288120839150F4CF10927E00F5
:10035000EDCF815038F7B8DE40E060918F0080919A
:100360009000CBDE811101C044D041DFD1E001C05B
:10037000D0E0839913C0C09190008C2F837083309C
:1003800011F4CC7F01C0CF5F40E060918F008C2FD3
:10039000B4DE882319F0C0939000D1E0809907C0A3
:1003A000C0918F008C2F877011F0C1500AC08299C4
:1003B0004BCFC0918F008C2F8770873009F444CFCA
:1003C000CF5F40E06C2F8091900097DE882309F486
:1003D0003BCFC0938F00D1E037CF991B79E004C0A9
:1003E000991F961708F0961B881F7A95C9F7809574
:0E03F000089581E090E0F89400C0F894FFCFEB
:1003FE0003E092E092E4D29C4BF0933CC9D8D8D85B
:0E040E00D878997899E89A5C59CC5ACC5A0162
:00000001FF
